:100000000C9434000C9451000C9451000C94510049
:100010000C9451000C9451000C9451000C9451001C
:100020000C9451000C9451000C9451000C9451000C
:100030000C9451000C9451000C9451000C945100FC
:100040000C9451000C9451000C9451000C945100EC
:100050000C9451000C9451000C9451000C945100DC
:100060000C9451000C94510011241FBECFEFD8E026
:10007000DEBFCDBF11E0A0E0B1E0E0EFFCE002C0E8
:1000800005900D92A636B107D9F711E0A6E6B1E0CA
:1000900001C01D92A23DB107E1F70E9465010C94D9
:1000A00076060C9400001092C50083E38093C40090
:1000B000E2ECF0E086E4808386E0808388ED809344
:1000C000C1000895FC0107C08091C00085FFFCCFEE
:1000D0009093C600319690819923B1F7089595B118
:1000E000282F207F9F70292B25B92898299A22E054
:1000F000922F9A95F1F72998E8ECF0E03197F1F713
:1001000095B18295807F9F70982B95B9299A2A95F1
:10011000F1F7299880EA9FE00197F1F7089595B1EA
:10012000282F207F9F70292B25B9289A299A22E011
:10013000922F9A95F1F72998E8ECF0E03197F1F7D2
:1001400095B18295807F9F70982B95B9299A2A95B1
:10015000F1F7299880EA9FE00197F1F708958FEF72
:1001600084B980ED97E028EC30E0F9013197F1F7A0
:100170000197D9F783E30E946F0082E30E946F002A
:1001800088E20E946F008CE00E946F0081E00E9474
:100190006F0080EA9FE00197F1F782E80E946F000C
:1001A0000895DF93CF9300D0CDB7DEB790E8998361
:1001B00090EC9A83FE01E60FF11D9181890F0E9458
:1001C0006F000F900F90CF91DF9108951F93CF9301
:1001D000DF93EC0110E003C00E948F001F5FFE015F
:1001E000E10FF11D80818823B9F7DF91CF911F9135
:1001F000089581E00E946F0080EA9FE00197F1F787
:10020000089517B887E880937A0080E480937C0093
:1002100008958770806480937C0080917A00806468
:1002200080937A0080917A0084FFFCCF80917A00DD
:10023000806180937A0080ED97E00197F1F720913B
:10024000780030917900C90108950E947C02CB01A9
:100250004F978797C0F482E088B95A9880916601D9
:1002600090916701892B81F580E091E00E94620006
:1002700081E090E09093670180936601109269019C
:100280001092680108956734710544F084E08BB9D9
:1002900018B884E191E00E94620008955A9818B855
:1002A0008091680190916901892B71F48EE191E050
:1002B0000E94620081E090E0909369018093680160
:1002C000109267011092660108957F928F929F921B
:1002D000AF92BF92CF92DF92EF92FF920F931F9354
:1002E000DF93CF93CDB7DEB72A970FB6F894DEBF72
:1002F0000FBECDBF1092C50083E38093C40086E497
:100300008093C20086E08093C20088ED8093C10094
:1003100083E391E00E9462000E94AF000E94F90016
:1003200017B887E880937A0080E480937C0084E0AB
:100330008AB97E010894E11CF11C3EE5832E31E070
:10034000932E2FE6A22EB12C98ECC92ED12C8AE048
:10035000782E80E060E00E94D10081E591E00E946B
:10036000E60080E00E940901AA2797FDA095BA2F18
:10037000BC01CD010E94AF0226EF38E24CE950E407
:100380000E943B0320E030E040E251E40E9414026E
:1003900060936A0170936B0180936C0190936D017F
:1003A0002DB73EB7285030400FB6F8943EBF0FBE71
:1003B0002DBF0DB71EB70F5F1F4FEDB7FEB7F2820F
:1003C000E182F801938282820E947C02F8017583A7
:1003D0006483B782A6820E949E032DB73EB7285F32
:1003E0003F4F0FB6F8943EBF0FBE2DBF80E061E0D7
:1003F0000E94D100C7010E94E60080E197E2F60169
:100400003197F1F70197D9F7F701272D11922A9526
:10041000E9F760916A0170916B0180916C01909194
:100420006D010E94250195CF0CD0EBC0E3D040F0C8
:10043000DAD030F021F45F3F19F0CCC0511115C172
:10044000CFC0F0D098F39923C9F35523B1F3951B8E
:10045000550BBB27AA2762177307840738F09F5FE5
:100460005F4F220F331F441FAA1FA9F333D00E2E54
:100470003AF0E0E830D091505040E695001CCAF7C1
:1004800029D0FE2F27D0660F771F881FBB1F261786
:1004900037074807AB07B0E809F0BB0B802DBF0159
:1004A000FF2793585F4F2AF09E3F510568F092C096
:1004B000DCC05F3FECF3983EDCF38695779567955B
:1004C000B795F7959F5FC9F7880F911D969587950A
:1004D00097F90895E1E0660F771F881FBB1F621729
:1004E00073078407BA0720F0621B730B840BBA0BE7
:1004F000EE1F88F7E095089504D06894B111B5C057
:10050000089598D088F09F5790F0B92F9927B75148
:10051000A0F0D1F0660F771F881F991F1AF0BA95C7
:10052000C9F712C0B13081F09FD0B1E008959CC0EE
:10053000672F782F8827B85F39F0B93FCCF38695BD
:1005400077956795B395D9F73EF49095809570951A
:1005500061957F4F8F4F9F4F0895E89409C097FB97
:100560003EF490958095709561957F4F8F4F9F4F8A
:100570009923A9F0F92F96E9BB279395F6958795CE
:1005800077956795B795F111F8CFFAF4BB0F11F491
:1005900060FF1BC06F5F7F4F8F4F9F4F16C0882338
:1005A00011F096E911C0772321F09EE8872F762F6E
:1005B00005C0662371F096E8862F70E060E02AF0AF
:1005C0009A95660F771F881FDAF7880F969587959B
:1005D00097F9089597F99F6780E870E060E00895C3
:1005E0009FEF80EC089500240A941616170618064B
:1005F0000906089500240A94121613061406050627
:100600000895092E0394000C11F4882352F0BB0FB7
:1006100040F4BF2B11F460FF04C06F5F7F4F8F4F1A
:100620009F4F089557FD9058440F551F59F05F3F55
:1006300071F04795880F97FB991F61F09F3F79F004
:1006400087950895121613061406551FF2CF469586
:10065000F1DF08C0161617061806991FF1CF869508
:100660007105610508940895E894BB2766277727EC
:10067000CB0197F908950BD0C4CFB5DF28F0BADFCE
:1006800018F0952309F0A6CFABCF1124EECFCADF27
:10069000A0F3959FD1F3950F50E0551F629FF00195
:1006A000729FBB27F00DB11D639FAA27F00DB11DEE
:1006B000AA1F649F6627B00DA11D661F829F222777
:1006C000B00DA11D621F739FB00DA11D621F839FFE
:1006D000A00D611D221F749F3327A00D611D231FD4
:1006E000849F600D211D822F762F6A2F11249F5722
:1006F00050408AF0E1F088234AF0EE0FFF1FBB1F45
:10070000661F771F881F91505040A9F79E3F5105E3
:1007100070F060CFAACF5F3FECF3983EDCF3869594
:1007200077956795B795F795E7959F5FC1F7FE2B8E
:10073000880F911D9695879597F90895AEE0B0E0E2
:10074000E4EAF3E00C944D060D891E8986E08C8363
:100750001A8309838FEF9FE79E838D839E01275E17
:100760003F4FCE0101966F89788DA9010E94C20387
:100770002F813885020F131FF80110822E96E4E0B6
:100780000C946906ABE0B0E0E8ECF3E00C943F06B3
:100790003C012B015A01FC0117821682838181FDE5
:1007A00003C06FEF7FEFC6C19AE0892E1E01089447
:1007B000211C311CF3012381F20123FD859123FFCC
:1007C00081912F01882309F4B2C1853239F423FDC8
:1007D000859123FF81912F01853229F490E0B301A7
:1007E0000E94B505E7CF982FFF24EE249924FFE15E
:1007F000FF15D0F09B3269F09C3228F4903259F00A
:10080000933291F40EC09D3249F0903369F441E087
:1008100024C052E0F52A84E0F82A28C098E0F92A9A
:1008200025C0E0E1FE2A22C0F7FC29C0892F8053B1
:100830008A3070F4F6FE05C0989C902C1124980E16
:1008400015C0E89CE02C1124E80EF0E2FF2A0EC04F
:100850009E3229F4F6FC6BC140E4F42A07C09C36B2
:1008600019F450E8F52A02C0983649F4F20123FD44
:10087000959123FF91912F01992309F0B8CF892FEA
:100880008554833018F08052833038F444E050E0CF
:10089000A40EB51E5FE359830FC0933631F0933732
:1008A00079F0933509F056C020C0F5018081898325
:1008B00042E050E0A40EB51E610101E010E012C05C
:1008C000F501C080D180F6FC03C06FEF7FEF02C05E
:1008D000692D70E042E050E0A40EB51EC6010E94F2
:1008E000AA058C015FE7F52214C0F501C080D18014
:1008F000F6FC03C06FEF7FEF02C0692D70E042E0AD
:1009000050E0A40EB51EC6010E949F058C0150E860
:10091000F52AF3FE07C01AC080E290E0B3010E94FE
:10092000B505EA948E2D90E008171907A8F30EC0BC
:10093000F601F7FC8591F7FE81916F0190E0B3011C
:100940000E94B505E110EA9401501040011511050F
:1009500079F7EAC0943611F0993669F5F7FE08C0C8
:10096000F501208131814281538184E090E00AC009
:10097000F501808191819C01442737FD4095542FDA
:1009800082E090E0A80EB91E9FE6F92257FF09C049
:1009900050954095309521953F4F4F4F5F4FE0E880
:1009A000FE2ACA01B901A1012AE030E00E94E10556
:1009B000D82ED21840C0953729F41F2D1F7E2AE06B
:1009C00030E01DC01F2D197F9F3661F0903720F455
:1009D000983509F0ACC00FC0903739F0983709F05E
:1009E000A6C004C028E030E00AC0106114FD146005
:1009F00020E130E004C014FD166020E132E017FF72
:100A000008C0F501608171818281938144E050E0EA
:100A100008C0F50180819181BC0180E090E042E056
:100A200050E0A40EB51EA1010E94E105D82ED218F7
:100A30008FE7F82EF122F6FE0BC05EEFF522D914F7
:100A400038F4F4FE07C0F2FC05C08FEEF82202C0B5
:100A50001D2D01C0192DF4FE0DC0FE01ED0DF11D7F
:100A60008081803319F499EEF92208C01F5FF2FEED
:100A700005C003C08F2D867809F01F5F0F2DF3FC92
:100A800014C0F0FE0FC01E1510F09D2C0BC09D2C45
:100A90009E0C911A1E2D06C080E290E0B3010E94C8
:100AA000B5051F5F1E15C0F304C01E1510F4E11A32
:100AB00001C0EE2404FF0FC080E390E0B3010E9468
:100AC000B50502FF1DC001FD03C088E790E00EC020
:100AD00088E590E00BC0802F867891F001FF02C07E
:100AE0008BE201C080E2F7FC8DE290E0B3010E944E
:100AF000B50506C080E390E0B3010E94B5059A9465
:100B0000D914C0F3DA94F101ED0DF11D808190E06C
:100B1000B3010E94B505DD20A9F706C080E290E090
:100B2000B3010E94B505EA94EE20C1F743CEF3016C
:100B300066817781CB012B96E2E10C945B06FC0188
:100B40000590615070400110D8F7809590958E0FF8
:100B50009F1F0895FC016150704001900110D8F76B
:100B6000809590958E0F9F1F08950F931F93CF939D
:100B7000DF938C01EB018B8181FF1BC082FF0DC0D5
:100B80002E813F818C819D812817390764F4E8818B
:100B9000F9810193F983E88306C0E885F985802F00
:100BA0000995892B31F48E819F8101969F838E83D5
:100BB00002C00FEF1FEFC801DF91CF911F910F917E
:100BC0000895FA01AA27283051F1203181F1E894E3
:100BD0006F936E7F6E5F7F4F8F4F9F4FAF4FB1E030
:100BE0003ED0B4E03CD0670F781F891F9A1FA11D2B
:100BF000680F791F8A1F911DA11D6A0F711D811D2C
:100C0000911DA11D20D009F468943F912AE0269FF0
:100C100011243019305D3193DEF6CF010895462F4F
:100C20004770405D4193B3E00FD0C9F7F6CF462F30
:100C30004F70405D4A3318F0495D31FD4052419399
:100C400002D0A9F7EACFB4E0A69597958795779556
:100C50006795BA95C9F700976105710508959B01DD
:100C6000AC010A2E06945795479537952795BA9566
:100C7000C9F7620F731F841F951FA01D08952F923F
:100C80003F924F925F926F927F928F929F92AF921C
:100C9000BF92CF92DF92EF92FF920F931F93CF9369
:100CA000DF93CDB7DEB7CA1BDB0B0FB6F894DEBF00
:100CB0000FBECDBF09942A88398848885F846E8426
:100CC0007D848C849B84AA84B984C884DF80EE8070
:100CD000FD800C811B81AA81B981CE0FD11D0FB679
:100CE000F894DEBF0FBECDBFED010895F894FFCF9D
:100CF000455868617573742046616E206973204F92
:100D00006E200A00416C6572742121210A00455849
:100D100068617573742046616E206973204F464682
:100D2000200A005541525420636F6D6D756E6963E2
:100D30006174696F6E20696E69746961746564209D
:100D4000004B69746368656E2054656D700025649E
:060D500025634320200092
:00000001FF
